:020000040000FA
:08000000830100000000AE289E
:020008000800EE
:06000A00051C0A280B1082
:100010000B1C0828A020A020051805284A30A100A4
:10002000A02005182828A10B1028B00AB01C1D28F4
:10003000871C1D28B00A8519B00A3019B0014A3052
:10004000A1005F20A02005183428A10B2228152824
:1000500083160511831205111E30A100AA20051573
:1000600083160515831205289520B1183E28B0186F
:100070004228301C851430188510052830083106B8
:100080000319052807083039C0000A30A100AA204A
:100090006F201E30A100AA2074201E30A100AA20CB
:1000A00079201E30A100AA207E201E30A100AA20A7
:1000B0006F201E30A100AA204008870005280030CC
:1000C00030060319742801303006031979280230EC
:1000D000300603197E2803303006031983280030C8
:1000E0008719303A8700080020308719303A870096
:1000F000080010308719303A87000800303087191F
:10010000303A8700080087187E286F201E30A10033
:10011000AA207E201E30A100AA206F201E30A10040
:10012000AA207E201E30A1000800300883169A0005
:100130001C1555309D00AA309D009C1483120800A8
:100140000A30A000800181000B110B1DA528A00B17
:10015000A4280800A020A10BAA2808008501870177
:100160000730990028308B008316FF239000393028
:1001700085000F3087000130960031309500013046
:10018000810083120515831605158312B001B10194
:10019000031083169B011C141A088312B000B100CF
:1001A000003030060319E128013030060319EB282E
:1001B000023030060319F228033030060319FF28F5
:1001C000E8288514831685120516831285121329D3
:1001D0000130B000B1008510831685120516831218
:1001E000851213298718E828870183160710071539
:1001F0008312831685120516831285121329871818
:100200000C29870183160711071483128316051220
:1002100085168312051213298519E82883160512FD
:0C02200085168312051295205F2005282A
:04022C000034003466
:02400E00D43F9D
:024200000100BB
:00000001FF
