:080000008301000000008129CA
:0800080018308B00A10100007B
:100010000518A1178B1C0A288B100B100518211727
:100020008B1C102800008B100518A1168B1C16289D
:1000300000008B10051821168B1C1C2800008B104B
:100040000518A1158B1C222800008B1005182115FE
:100050008B1C282800008B100518A1148B1C2E283F
:1000600000008B10051821148B1C34280B183A281B
:10007000221408008B01A101A2018B1509008B013C
:10008000A2018518042088308B00C01A4C28221841
:100090005128051EAD28472822185128051AAD28D9
:1000A0004C288B010F30210603196128C11B6A28D7
:1000B000CD30210603199428CE3021060319A32838
:1000C0003F28C11F3E29C11A7B280930A40077218F
:1000D000C10A3F2883168512831240088500E52057
:1000E0006030A4007721C01A7828051E75288A2858
:1000F000051A78288A2883168512831240088500FD
:10010000E520C830A4007721C830A4007721C8308A
:10011000A40077214008203A8500831685168312B3
:100120003008B100C1013F2885199B2800303006F6
:1001300003195B219F280130300603195B21B003AE
:10014000DD207B213F28B00A0430300603195E21F0
:10015000DD209430A40077213F288B0166216621A1
:100160006621C01AB628051A3F28B828051E3F2860
:100170009430A400C01AC2286621051A6A28A40B6C
:10018000BC28C7286621051E6A28A40BC228B00A0D
:100190000430300603195E21DD209430A400C01A1B
:1001A000D7286621051A3F28A40BD128C728662125
:1001B000051E3F28A40BD728C72800303106031995
:1001C0000B290030300603190B29013030060319C2
:1001D000FF280230300603190329033030060319C3
:1001E0000729003030060319F628FC288519FC2859
:1001F0000030303A870033290130B000DD281B3051
:10020000303A870033292D30303A870033293E3089
:10021000303A870033290030300603191C29013099
:100220003006031922290230300603192829033029
:10023000300603192E29FC2807080F390038303AF8
:100240008700332907080F391038303A87003329DF
:1002500007080F392038303A8700332907080F394B
:100260003038303A8700300883169A001C15553014
:100270009D00AA309D009C14831208000708303AA4
:10028000303903194D2907083F39C1001030303A81
:1002900087003C30A4007721562907083F39C10068
:1002A0000030303A87003C30A400772141088700B5
:1002B000C101C1173F280430B00008008519632927
:1002C0000030B00008000130B00008008101831642
:1002D0000108F039810083121430A30020308B0014
:1002E0000B110B1D7129A30B70298B0108006621CE
:1002F000A40B772908009430A4006621A40B7D2963
:10030000080085018701073099008B018316703042
:100310008F009101870102309600803081008312A6
:10032000B001B101031083169B011C141A0883123B
:10033000B000B100E520C0012030051EC000C01A89
:10034000A629831620309500811383120B21C10149
:020350003F2844
:04035200003400343F
:02400E00D438A4
:024200000100BB
:00000001FF
