:080000008301000000008B29C0
:0800080018308B00A10100007B
:100010000518A1178B1C0A288B100B100518211727
:100020008B1C102800008B100518A1168B1C16289D
:1000300000008B10051821168B1C1C2800008B104B
:100040000518A1158B1C222800008B1005182115FE
:100050008B1C282800008B100518A1148B1C2E283F
:1000600000008B10051821148B1C34280B183A281B
:10007000221408008B01A101A2018B1509008B013C
:10008000A2018518042088308B00C01A4C28221841
:100090005128051EAD28472822185128051AAD28D9
:1000A0004C288B010F30210603196128C11B6A28D7
:1000B000CD30210603199428CE3021060319A32838
:1000C0003F28C11F4A29C11A7B280930A400812179
:1000D000C10A3F2883168512831240088500E52057
:1000E0006030A4008121C01A7828051E75288A284E
:1000F000051A78288A2883168512831240088500FD
:10010000E520C830A4008121C830A4008121C83076
:10011000A40081214008203A8500831685168312A9
:100120003008B100C1013F2885199B2800303006F6
:10013000031965219F280130300603196521B0039A
:10014000DD2085213F28B00A0430300603196821DC
:10015000DD209430A40081213F288B017021702183
:100160007021C01AB628051A3F28B828051E3F2856
:100170009430A400C01AC2287021051A6A28A40B62
:10018000BC28C7287021051E6A28A40BC228B00A03
:100190000430300603196821DD209430A400C01A11
:1001A000D7287021051A3F28A40BD128C728702111
:1001B000051E3F28A40BD728C72800303106031995
:1001C0001B290030300603191B29013030060319A2
:1001D00003290230300603190B29033030060319B6
:1001E0001329003030060319F62800298519002943
:1001F00087018316073087008312003087003F296C
:100200000130B000DD288701831603308700831298
:10021000183087003F298701831605308700831235
:10022000283087003F298701831606308700831214
:10023000383087003F290030300603192C2901305F
:1002400030060319312902303006031936290330EC
:10025000300603193B2900290708083900388700B0
:100260003F2907080839103887003F29070808394F
:10027000203887003F2907080839303887003008C0
:1002800083169A001C1555309D00AA309D009C14C1
:100290008312080007303039031957290708083935
:1002A000C100103887003C30A40081215F29070875
:1002B0000839C100003887003C30A4008121410882
:1002C00038398700C101C1173F280430B000080049
:1002D00085196D290030B00008000130B000080019
:1002E000810183160108F039810083121430A300C4
:1002F00020308B000B110B1D7B29A30B7A298B015E
:1003000008007021A40B812908009430A4007021FA
:10031000A40B8729080085018701073099008B010C
:10032000831670308F0091010330870002309600F1
:10033000803081008312B001B101031083169B014C
:100340001C141A088312B000B100E520C00120304F
:10035000051EC000C01AB1298316203095008113F4
:0803600083121B21C1013F289B
:040368000034003429
:02400E00D438A4
:024200000100BB
:00000001FF
