:020000040000FA
:08000000830100000000A529A6
:0800080018308B00000000001D
:100010000518A1178B1C0A28051D0C288B100B1026
:10002000051821178B1C1228051D14288B100000A1
:100030000518A1168B1C1A28051D1C288B10000002
:10004000051821168B1C2228051D24288B10000062
:100050000518A1158B1C2A28051D2C288B100000C3
:10006000051821158B1C3228051D34288B10000023
:100070000518A1148B1C3A28051D3C288B10000084
:10008000051821148B1C42280B184828221408003C
:0A0090008B01A101A2018B150900EC
:06009A008B01A101A2018F
:1000A0008518042088308B00C01A5B28221860282D
:1000B000051EBC28562822186028051ABC285B2873
:1000C0008B010F30210603197028C11B7928CD3010
:1000D00021060319A328CE3021060319B2284D2882
:1000E000C11F5929C11A8A280930A4009021C10AC8
:1000F0004D2883168512831240088500F420603055
:10010000A4009021C01A8728051E84289928051A62
:100110008728992883168512831240088500F420C9
:10012000C830A4009021C830A4009021C830A40099
:1001300090214008203A85008316851683123008E6
:10014000B100C1014D288519AA28003030060319D5
:100150007421AE280130300603197421B003EC205D
:1001600094214D28B00A0430300603197721EC2081
:080170009430A40090214D28F9
:080178008B017F217F217F2113
:10018000C01AC528051A4D28C728051E4D289430C9
:10019000A400C01AD1287F21051A7928A40BCB28E6
:1001A000D6287F21051E7928A40BD128B00A043057
:1001B000300603197721EC209430A400C01AE628F9
:1001C0007F21051A4D28A40BE028D6287F21051E83
:0801D0004D28A40BE628D628F7
:0801D8000030310603192A2949
:1001E0000030300603192A2901303006031912297C
:1001F0000230300603191A29033030060319222968
:1002000000303006031905290F2985190F298701A8
:100210008316073087008312003087004E29013093
:10022000B000EC2887018316033087008312183052
:1002300087004E29870183160530870083122830F6
:1002400087004E29870183160630870083123830D5
:1002500087004E290030300603193B290130300653
:1002600003194029023030060319452903303006AE
:1002700003194A290F2907080839003887004E2931
:1002800007080839103887004E2907080839203830
:1002900087004E2907080839303887003008831650
:1002A0009A001C1555309D00AA309D009C148312A5
:1002B0000800073030390319662907080839C100DA
:1002C000103887003C30A40090216E2907080839B7
:1002D000C100003887003C30A40090214108383923
:1002E0008700C101C1174D280430B00008008519EE
:1002F0007C290030B00008000130B0000800810106
:1003000083160108F039810083121430A3002030D5
:100310008B000B110B1D8A29A30B89298B01080067
:100320007F21A40B902908009430A4007F21A40B06
:040330009629080002
:04033400003400345D
:06034A0085018701073068
:1003500099008B01831670308F0091013F3085002A
:100360000330870002309600803081008312B00194
:10037000B101031083169B011C141A088312B000EC
:10038000B100F420C0012030051EC0002A21C101A7
:020390004D28F6
:02400E00D438A4
:024200000100BB
:00000001FF
