:080000008301000000009B29B0
:0800080018308B00A10100007B
:100010000518A1178B1C0A280D288B100B1005182A
:1000200021178B1C1128142800008B100518A1160D
:100030008B1C18281B2800008B10051821168B1C00
:100040001F28222800008B100518A1158B1C2628BC
:10005000292800008B10051821158B1C2D2830280D
:1000600000008B100518A1148B1C342837280000C1
:100070008B10051821148B1C3B280B1841282214C7
:1000800008008B01A101A2018B1509008B01A201BF
:100090008518042088308B00C01A5328221858284D
:1000A000051EB6284E2822185828051AB6285328A7
:1000B0008B010F30210603196828C11B7128CD3030
:1000C000210603199B28CE3021060319AC284628A7
:1000D000C11F5B29C11A82280930A4009721C10AD7
:1000E000462883168512831240088500EE20603072
:1000F000A4009721C01A7F28051E7C289128051A84
:100100007F28912883168512831240088500EE20EF
:10011000C830A4009721C830A4009721C830A4009B
:1001200097214008203A85008316851683123008EF
:10013000B100C10146288519A228003030060319F4
:100140007B21A6280130300603197B21B003E6206D
:100150009430A40097214628B00A043030060319D1
:100160007E21E6209430A400972146288B01862129
:1001700086218621C01ABF28051A4628C128051ED7
:1001800046289430A400C01ACB288621051A71286D
:10019000A40BC528D0288621051E7128A40BCB28C6
:1001A000B00A0430300603197E21E6209430A40002
:1001B000C01AE0288621051A4628A40BDA28D02880
:1001C0008621051E4628A40BE028D02800303106E1
:1001D0000319282900303006031928290130300678
:1001E00003190D2902303006031916290330300691
:1001F00003191F29003030060319FF280A29851921
:100200000A29870183160730870083120030303AAD
:10021000870050290130B000E6288701831603309B
:10022000870083121830303A8700502987018316DF
:100230000530870083122830303A87005029870123
:1002400083160630870083123830303A87005029F1
:1002500000303006031939290130300603193F29CF
:1002600002303006031945290330300603194B29A3
:100270000A29070808390038303A8700502907084A
:1002800008391038303A87005029070808392038D3
:10029000303A87005029070808393038303A87004B
:1002A000300883169A001C1555309D00AA309D0019
:1002B0009C14831208000730303A303903196B2937
:1002C00007083F39C10007391038303A87003C3001
:1002D000A4009721752907083F39C1000739003864
:1002E000303A87003C30A400972141083839870014
:1002F000C101C11746280430B000080085198329C0
:100300000030B00008000130B00008008101831601
:100310000108F039810083121430A30020308B00D3
:100320000B110B1D9129A30B90298B01080086212D
:10033000A40B9729080085018701073099008B01DC
:10034000831670308F0091010330870002309600D1
:10035000803081008312B001B101031083169B012C
:100360001C141A088312B000B100EE20C001203026
:10037000051EC000C01AC1298316203095008113C4
:0803800083122821C101462867
:040388000034003409
:02400E00D438A4
:024200000100BB
:00000001FF
