:020000040000FA
:08000000830100000000AA28A2
:0800080018308B00000000001D
:100010000518C1178B1C0A28051D0C288B100B1006
:10002000051841178B1C1228051D14288B10000081
:100030000518C1168B1C1A28051D1C288B100000E2
:10004000051841168B1C2228051D24288B10000042
:100050000518C1158B1C2A28051D2C288B100000A3
:10006000051841158B1C3228051D34288B10000003
:100070000518C1148B1C3A28051D3C288B10000064
:10008000051841148B1C42280B18482842140800FC
:0A0090008B01C101C2018B150900AC
:06009A008B01C101C2014F
:0E00A0008518042088308B00421857285428F9
:0200AE008B01C4
:1000B0000F30410603195F28E11B6E284D28E11F10
:1000C0006828E11A79280930C400A620E10A4D28E1
:1000D000E101E1170930C400A6204D28831603135F
:1000E000851283120313600885003C30C400A620EB
:1000F0008928831603138512831203136008850071
:10010000C830C400A620C830C400A620C830C4002F
:10011000A6206008203A85008316031385168312F3
:060120000313E1014D286C
:0A0126008101831603130108F0396C
:100130008100831203131430C30020308B000B1195
:100140000B1DA028C30B9F288B0108009320C40B14
:04015000A6280800D5
:0C0154008501073099008B01831603130E
:1001600070308F003F3085001030950002309600CF
:10017000810183120313E0012030851DE000E101BD
:020180004D2808
:040182000034003411
:02400E00C438B4
:00000001FF
