:080000008301000000009B28B1
:0800080018308B00C10100005B
:100010000518C1178B1C0A288B100B1005184117E7
:100020008B1C102800008B100518C1168B1C16287D
:1000300000008B10051841168B1C1C2800008B102B
:100040000518C1158B1C222800008B1005184115BE
:100050008B1C282800008B100518C1148B1C2E281F
:1000600000008B10051841148B1C34280B183A28FB
:10007000421408008B01C101C2018B1509008B01DC
:10008000C2018518042088308B0042184828452872
:100090008B010F30410603195028E11B5F283F28D0
:1000A000E11F5928E11A6A280930C4009720E10AA3
:1000B0003F28E101E1170930C40097203F2883164B
:1000C0000313851283120313600885003C30C400BB
:1000D00097207A288316031385128312031360086E
:1000E0008500C830C4009720C830C4009720C830AD
:1000F000C40097206008203A8500831603138516F4
:1001000083120313E1013F288101831603130108C1
:10011000F0398100831203131430C30020308B00A8
:100120000B110B1D9128C30B90288B010800842014
:10013000C40B972808008501073099008B018316AE
:10014000031370308F003F3085001030950002306F
:100150009600810183120313E0012030851DE00029
:04016000E1013F2852
:04016400003400342F
:02400E00C438B4
:00000001FF
