:020000040000FA
:080000008301000000009528B7
:020008000800EE
:06000A00C10185180B285E
:100010000B100B1C092885180B288B100518C1170D
:100020008B1C1028051D12288B100B10051841176A
:100030008B1C1828051D1A288B1000000518C116E6
:100040008B1C2028051D22288B1000000518411646
:100050008B1C2828051D2A288B1000000518C115A7
:100060008B1C30288B100000051D32280518411507
:100070008B1C3828051D3A288B1000000518C11468
:100080008B1C4028051D42288B10000005184114C8
:100090008B1C48280B1805280F30410603195328DC
:1000A000E11B62280528E11F5C28E11A6B28093052
:1000B000C3009120E10A0528E101E1170930C300DE
:1000C00091200528831685128312600885003C3034
:1000D000C300912079288316851283126008850059
:1000E000C830C3009120C830C3009120C830C3007D
:1000F00091206008203A8500831685168312E1015D
:100100000528810183160108F0398100831214301B
:10011000C2008B160B110B1D8B28C20B8A288B1269
:1001200008008120C30B9128080085010730990041
:1001300018308B00831670308F003F3085001030F0
:1001400095000230960081018312E0012030851D68
:06015000E000E1010528BA
:04015600003400343D
:02400E00C438B4
:00000001FF
