:020000040000FA
:080000008301000000009128BB
:020008000800EE
:06000A00FF30C100851863
:100010000D280B100B180D280A2800000000000006
:100020000000051CC1138B108B1C142838308B006A
:10003000051C41138B1C1A288B100000051CC112D3
:100040008B1C20288B100000051C41128B1C2628BD
:100050008B100000051CC1118B1C2C288B1000007C
:10006000051C41118B108B1C33288B100000051CC4
:10007000C1108B1C39288B100000051C41108B1CF3
:100080003F280B1805280F30410603194A28E11BA9
:1000900059280528E11F5328E11A64280930C300B4
:1000A0008D20E10A0528E101E1170930C3008D2008
:1000B0000528831603138512831203136008850035
:1000C0003C30C3008D2074288316031385128312DD
:1000D000031360088500C830C3008D20C830C300FA
:1000E0008D20C830C3008D206008203A850083161B
:1000F0000313851683120313E101052883160313E6
:10010000C1308100831203130A30C20081010B1138
:100110000B1D8828C20B872808007E20C30B8D2862
:10012000080085010730990038308B0083160313CF
:1001300070308F003F3085001030950002309600FF
:100140004130810083120313E0012030851DE0005F
:04015000E10105289C
:04015400003400343F
:02400E00C438B4
:00000001FF
