:020000040000FA
:100000008316FF2390008312831285010730990025
:1000100000308B0083162F3085000F3087000030B2
:1000200095008030810083120512D00103108316E1
:100030009B011C141A088312D00050184821D018B4
:100040003E2150194321851A2328D0194D21501ED5
:1000500033283C30D200392101303321D0194D21D1
:10006000D203031D2B285018BE28D018C9285019B8
:10007000D128EB28851AD3285018BE28D019EA2891
:10008000851C3A2885184228A001A101A20103106D
:10009000051948280508A00D0139A004A20A051D6C
:1000A0004F28A21D4A28A2010508A10D0139A1046B
:1000B000A20A051D5928221D5428043021060319BF
:1000C0006A280830210603196F280C30210603190D
:1000D00074283A28DF302006031D3A28C328DF3071
:1000E0002006031D3A28A1285F3020060319B828EE
:1000F0009F3020060319CB28CF3020060319912802
:10010000D73020060319F528DB30200603190F2904
:10011000DD3020060319E528DE3020060319E52826
:100120003A288316851283128516501A3921153004
:100130002D21831685168312501E3A283C30D2009A
:100140002B28831685128312851615302D218316D0
:10015000851603012D2185128312851615302D2158
:10016000831685168312501E3A286830D2002B2839
:100170005008F039013AD0005921482107190516D5
:10018000071D051240285008F039023AD0005921C5
:100190003E21051240285008F039043AD000592178
:1001A0004321051640280430D30001303321851A3D
:1001B000DF28501E3C2839213C30D2002B28D303A5
:1001C000031DD5284D21851AE2285008F039083A38
:1001D000D00059214D2185190516851D051240288D
:1001E00007190516071D05124028501AFA2850163F
:1001F0005008592107083039D100542103303321E8
:100200003E21033033214321033033214821033081
:100210003321542103303321510887003A28501EDE
:10022000142950125008592107083039D10054219F
:10023000033033214821033033213E210330332161
:1002400043210330332154210330332151088700E7
:100250003A28AF00AF0B2A293029AE000301292923
:10026000AE0B2F290800AD0003012D21AD0B352960
:10027000080007190516071D051208001030871918
:10028000303A8700080020308719303A870008008C
:1002900030308719303A87000800030107182038EA
:1002A000871810388700080000308719303A870017
:1002B000080083169A001C1555309D00AA309D0039
:0602C0009C1483120800EB
:0402C60000340034CC
:02400E00D43F9D
:024200001200AA
:00000001FF
