:020000040000FA
:080000000000000000001028C0
:080008008B1005108510051690
:10001000DE01DF01DF14DD01DC01DC158B17232895
:100020008312000085010730990090308B00831601
:1000300000002D30850024309500003081008312AF
:10004000000005162228831600000514851083126F
:1000500000000B30A1000130A2000430A3000F30DB
:10006000A4000430A5000B30A6000530A70007301F
:10007000A8000F30A9000D30AA000630AB000130F7
:10008000AC000E30AD000930AE000830AF00831672
:1000900000009B011C141A0883120000B2000A30F1
:1000A000B3000130B4000830B5000530B6000F30A1
:1000B000B7000130B800B9000E30BA000130BB0003
:1000C0000030BC000D30BD000E30BE000C30BF0053
:1000D000B530EB21B1010518B1150230EB2100005C
:1000E0000000051831140230EB2100000000051853
:1000F000B1140230EB210000000005183115831601
:100100000000051085148312000000002730EB2149
:100110000130303E8400000000000008A000A01064
:100120002018A0142016200885000000103085003B
:100130001430EB215D1805120000000005160518AB
:10014000F5298518F529840A0F300405031D8B282D
:10015000C220C220C2200230EB210000000037186C
:10016000B6288316000005108514BB2883160000EE
:100170000514851000008312000037080F39031D95
:100180008928882855210508DC002F08A000013E99
:10019000A1072208C0002108A207A20AA209230879
:1001A000C1000F30A30540080F39A307A30A231A83
:1001B00014294108A4072508C0002408A50726081B
:1001C000C10040080F39083EC000401E2607A600A7
:1001D0004108013EA7072708013EA8072808013E5D
:1001E000A9072908013EAA072A08013EAB072B08E8
:1001F000013EAC072C08013EAD072D08013EAE07BD
:100200002E08013EAF0720080F390F3EA0005D18F1
:1002100005120000000005160000000000000000AC
:10022000201E54290000C7284108A3072408C00045
:100230002308A4072508C10040080F39083EC00064
:10024000401E2507A5004108013EA6072608013EDD
:10025000A7072708013EA8072808013EA907290883
:10026000013EAA072A08013EAB072B08013EAC0756
:100270002C08013EAD072D08013EAE072E08013EB9
:10028000AF0720080F390F3EA00005100508DC1D40
:100290000514DE000508DF0005105D1805120516BF
:1002A000201E54292008C72808003F08B000013E3E
:1002B000B1073208C0003108B207B20AB2093308E8
:1002C000C1000F30B30540080F39B307B30A331A22
:1002D000A4294108B4073508C0003408B50736081A
:1002E000C10040080F39083EC000401E3607B60066
:1002F0004108013EB7073708013EB8073808013EFC
:10030000B9073908013EBA073A08013EBB073B0866
:10031000013EBC073C08013EBD073D08013EBE074B
:100320003E08013EBF0730080F390F3EB0005D1890
:10033000051200000000051600000000000000008B
:10034000301E5429000057294108B3073408C00063
:100350003308B4073508C10040080F39083EC00013
:10036000401E3507B5004108013EB6073608013E7C
:10037000B7073708013EB8073808013EB907390802
:10038000013EBA073A08013EBB073B08013EBC07E5
:100390003C08013EBD073D08013EBE073E08013E48
:1003A000BF0730080F390F3EB000DE1CDC29DF1814
:1003B000DE29DC19E329162A0000000000000000F5
:1003C00000000000E72905125D1400000516301E2C
:1003D000542900005729CF00CF0BEC290800CE008C
:1003E0000301EB21CE0BF12908003A30EF218316EF
:1003F000000003019B001C141A0883120000CD00AA
:100400004D18042A0930052A0630831600009A0088
:100410001C158B138B1B092A55309D00AA309D009B
:100420009C148B17831200000512152A83160000F6
:100430000514851483120000051600000000051243
:020440001C2A74
:04044200003400344E
:02400E00D33F9E
:024200000900B3
:00000001FF
