:020000040000FA
:080000008301000000009528B7
:020008000800EE
:06000A0005084006203944
:1000100003190C280B106300872087200508400671
:100020002039031D05284A30A10087200508400615
:100030002039031D5128A10B1528B00A03303006C2
:10004000031984205B204A30A10087200508400660
:100050002039031D2E28A10B25281D2879200030CA
:10006000300603193C280130300603193F280230BE
:100070003006031942284528871007154A28871497
:1000800007114A28871407114A283108B00079203F
:100090005B20052831083006023903190528851927
:1000A000052883160512831205121E30A100912027
:1000B0003008B100B428003030060319642801303C
:1000C000300603196B28722807080F39203A871960
:1000D000303A8700080007080F39103A8719303A7C
:1000E0008700080007080F39303A8719303A87002F
:1000F0000800300883169A001C1555309D00AA3060
:100100009D009C14831208000030B00008000A30E3
:10011000A000800181000B110B1D8C28A00B8B28E7
:1001200008008720A10B912808008501870107306E
:10013000990028308B008316FF2390003B30850008
:100140000830870020309600233095000130810070
:100150008312B001B101C201031083169B011C146C
:100160001A088312B000B100003030060319C1280C
:10017000013030060319C628023030060319CB2897
:10018000DC288710071505150710CF2887140711DD
:1001900005150710CF2887140711051107147920BA
:1001A0005B20051683160516831242180528421493
:1001B000C001851EC01605280130B000B100B4286A
:0401C00000340034D3
:02400E00D43F9D
:024200000100BB
:00000001FF
