:020000040000FA
:080000008301000000008228CA
:020008000800EE
:06000A000B100508400682
:100010000139031D63006E206E200508400601397A
:10002000031D05284A30A1006E200508400601394D
:10003000031D3828A10B1428B0182028B00A212845
:10004000B01045204A30A1006E2005084006013955
:10005000031D2D28A10B24281C285F203018871091
:10006000301C87143008310603190528851D052822
:1000700083168510831285101E30A1007E209E28D5
:100080003108B0005F2045200528B0184A283018F4
:100090005128582807080F39103A8719303A870035
:1000A000080007080F39203A8719303A87000800FE
:1000B00007080F39303A8719303A870008003008AE
:1000C00083169A009B011C1555309D00AA309D0097
:1000D0009C149C1869281C11831208008101831646
:1000E0000108F039810083121430A0008B160B1127
:1000F0000B1D7828A00B77288B1208006E20A10B0F
:100100007E280800850187010730990008308B00A0
:100110008316FF2390003B308500083087000130B4
:1001200096003130950081018312C201B0010310A5
:1001300083169B011C141A088312B000B018B02853
:100140003018A92887140711051507100030B000D2
:10015000B62887100715051507100130B000B6281E
:1001600087140711051107140230B0005F204520E5
:100170008514831685148312B1013008B10042182A
:0C01800005284214C001051C401405288D
:04018C000034003407
:02400E00D43F9D
:024200000000BC
:00000001FF
