:020000040000FA
:080000008301000000009A28B2
:020008000800EE
:06000A0005084006203944
:1000100003190C280B106300862086200508400673
:100020002039031D05284A30A10086200508400616
:100030002039031D5128A10B1528B00A03303006C2
:10004000031974205B204A30A10086200508400671
:100050002039031D2E28A10B25281D2877200030CC
:10006000300603193C280130300603193F280230BE
:100070003006031942284528871007154A28871497
:1000800007114A28871407114A283108B000772041
:100090005B20052831083006023903190528851927
:1000A000052883160512831205121E30A100962022
:1000B0003008B100B628B0186D2830186628070837
:1000C0000F39203A8719303A8700080007080F399E
:1000D000103A8719303A8700080007080F39303A7C
:1000E0008719303A870008000030B0000800300857
:1000F00083169A009B011C1555309D00AA309D0067
:100100009C149C1881281C118312080081018316FD
:100110000108F039810083121430A0008B160B11F6
:100120000B1D9028A00B8F288B1208008620A10B96
:1001300096280800850187010730990008308B0058
:100140008316FF2390003B30850008308700203065
:1001500096002330950081018312C201B001031083
:1001600083169B011C141A088312B000B018C8280B
:100170003018C12887100715051507100030B0008A
:10018000CE2887140711051507100130B000CE28BE
:1001900087140711051107140230B00077205B2087
:1001A0000516831605168312B1013008B1004218F6
:0C01B00005284214C001851EC016052859
:0401BC0000340034D7
:02400E00D43F9D
:024200000100BB
:00000001FF
