:020000040000FA
:080000008301000000009628B6
:020008000800EE
:06000A000B100508400682
:100010002039031D63008220822005084006203914
:10002000031D05284A30A10082200508400620391A
:10003000031D5028A10B1428B00A03303006031901
:10004000712058204A30A10082200508400620393E
:10005000031D2D28A10B24281C28732000303006F6
:1000600003193B280130300603193E2802303006C0
:1000700003194128442887140711492887100715B8
:1000800049288714071149283108B00073205820E7
:100090000528851905283108300602390319052875
:1000A00083160512831205121E30A1009220B22879
:1000B000B0186A283018632807080F39103A8719D2
:1000C000303A8700080007080F39203A8719303A7C
:1000D0008700080007080F39303A8719303A87003F
:1000E0000800B0010800300883169A009B011C1517
:1000F00055309D00AA309D009C149C187D281C1131
:1001000083120800810183160108F03981008312EF
:100110001430A0008B160B110B1D8C28A00B8B2804
:100120008B1208008220A10B92280800850187010C
:100130000730990008308B008316FF2390003B3076
:10014000850008308700203096002330950081011B
:100150008312C201B001031083169B011C141A08FC
:100160008312B000B018C4283018BD2887140711B6
:10017000051507100030B000CA28871007150515AF
:1001800007100130B000CA288714071105110714A1
:100190000230B0007320582005168316051683120E
:1001A000B1013008B100421805284214C001851E73
:0401B000C016052848
:0401B40000340034DF
:02400E00D43F9D
:024200000000BC
:00000001FF
