:020000040000FA
:080000008301000000009428B8
:020008000800EE
:06000A000B100508400682
:100010000139031D63008020802005084006013956
:10002000031D052867204A30A100802005084006EE
:100030000139031D3928A10B1528B0182128B00A51
:100040002228B01046204A30A10080200508400632
:100050000139031D2E28A10B25281D2871203018D9
:100060008710301C87143008310603190528851DB8
:10007000052883168510831285101A30A100902060
:10008000B0283108B000712046200528B0184B2850
:1000900030185228592807080F39103A8719303A72
:1000A0008700080007080F39203A8719303A87007F
:1000B000080007080F39303A8719303A87000800DE
:1000C00007080F39003A8719303A870008000708F7
:1000D0003F39C10060201A30A100902041088700FC
:1000E0000800300883169A009B011C1555309D00AE
:1000F000AA309D009C149C187B281C1183120800B8
:10010000810183160108F039810083121430A000A8
:100110008B160B110B1D8A28A00B89288B12080047
:100120008020A10B902808008501870107309900E5
:1001300008308B008316FF2390003B308500083089
:100140008700013096003130950081018312C20191
:10015000B001031083169B011C141A088312B0000F
:10016000B018C2283018BB288714071105150710CE
:100170000030B000C828871007150515071001309A
:10018000B000C82887140711051107140230B00009
:10019000712046208514831685148312B10130081E
:1001A000B100421805284214C001051C401405285E
:0401B00000340034E3
:02400E00D43F9D
:024200000000BC
:00000001FF
