:020000040000FA
:080000008301000000009928B3
:020008000800EE
:06000A0005084006203944
:1000100003190C280B106300852085200508400675
:100020002039031D05284A30A10085200508400617
:100030002039031D5128A10B1528B00A03303006C2
:10004000031974205B204A30A10085200508400672
:100050002039031D2E28A10B25281D2876200030CD
:10006000300603193C280130300603193F280230BE
:100070003006031942284528051507104A2805119E
:1000800007144A28051507104A283108B0007620C1
:100090005B20052831083006023903190528851927
:1000A000052883160512831205121E30A100952023
:1000B0003008B100B528B0186D2830186628070838
:1000C0000F39103A8719303A8700080007080F39AE
:1000D000203A8719303A8700080007080F39303A6C
:1000E0008719303A87000800B001080030088316ED
:1000F0009A009B011C1555309D00AA309D009C1450
:100100009C1880281C1183120800810183160108A5
:10011000F039810083121430A0008B160B110B1DD7
:100120008F28A00B8E288B1208008520A10B952804
:100130000800850187010730990008308B0083167D
:10014000FF2390003B308500083087002030960068
:100150002330950081018312C201B0010310831680
:100160009B011C141A088312B000B018C72830185D
:10017000C02805150710871407110030B000CD28DE
:1001800005110714871407110130B000CD2805159B
:100190000710871007150230B00076205B20051687
:1001A000831605168312B1013008B10042180528E4
:0A01B0004214C001851EC016052888
:0401BA0000340034D9
:02400E00D43F9D
:024200000000BC
:00000001FF
