:020000040000FA
:080000008301000000009328B9
:020008000800EE
:06000A000B100508400682
:100010000139031D63007F207F2005084006013958
:10002000031D052866204A30A1007F2005084006F0
:100030000139031D3928A10B1528B0182128B00A51
:100040002228B01046204A30A1007F200508400633
:100050000139031D2E28A10B25281D2870203018DA
:100060008710301C87143008310603190528851DB8
:10007000052883168510831285101A30A1008F2061
:10008000AF283108B000702046200528B018582845
:100090003018512807080F39103A8719303A87006D
:1000A000080007080F39203A8719303A87000800FE
:1000B00007080F39303A8719303A870008000708D7
:1000C0000F39003A8719303A8700080007083F398E
:1000D000C1005F201A30A1008F204108870008006E
:1000E000300883169A009B011C1555309D00AA30DC
:1000F0009D009C149C187A281C1183120800810111
:1001000083160108F039810083121430A0008B1689
:100110000B110B1D8928A00B88288B1208007F204B
:10012000A10B8F280800850187010730990008304E
:100130008B008316FF2390003B308500083087003A
:10014000013096003130950081018312C201B00167
:10015000031083169B011C141A088312B000B018F8
:10016000C1283018BA288714071105150710003068
:10017000B000C72887100715051507100130B0001B
:10018000C72887140711051107140230B00070202A
:1001900046208514831685148312B1013008B100FE
:0E01A000421805284214C001051C4014052811
:0201AE0000341B
:0201B000003419
:02400E00D43F9D
:024200000000BC
:00000001FF
