:020000040000FA
:080000008301000000004B2AFF
:020008000800EE
:06000A00851A0A294018C6
:10001000F528C0195A29C01B0528FF30A000FF3061
:10002000A1008E018F018C011014851823280B105C
:100030000B182328851A0A290B1823280C180528C1
:100040000B18232818288B10051CA1138B1C26289D
:100050008B10051C21130B108B1C2C288B10051CDE
:10006000A1128B1C31288B10051C21128B1C3628E9
:100070008B10051CA1118B1C3B288B10051C21111A
:100080008B1C40288B10051CA1108B1C45288B1045
:10009000051C21108B1C4A288B10051CA0138B1CDF
:1000A0004F288B10051C20138B1C54288B10051C0B
:1000B000A0128B1C59288B10051C20128B1C5E284B
:1000C0008B10051CA0118B1C63288B10051C2011A4
:1000D0008B1C68288B10051CA0108B186F28000043
:1000E000051C20100B180528F53021060319982946
:1000F000401B05284F302006031987288F30200623
:1001000003199028CF302006031995280528DF30E1
:1001100021060319FA28793021060319072A052830
:10012000DF3021060319C92805285F30210603198D
:10013000EF289F30210603190229CF302106031929
:10014000B228D730210603196029DB3021060319B4
:100150007C29DD30210603195529DE3021060319DB
:100160005529052883168512831285163A223A22CC
:10017000401A09223A223A228512831685168312E2
:10018000401E0528A330B3008E018F018C0110148E
:100190007C2A83168512831285163A223A223A2245
:1001A0003A2285128316851683122830B200472220
:1001B00083168512831285163A223A22401A0922A2
:1001C0003A223A228512831685168312401E05288C
:1001D000FF30B3008E018F018C0110147C2A40087F
:1001E0007039013AC0002F221C2207190516071D7D
:1001F00005120B2840087039023AC0002F220E2247
:1002000005120B2840087039043AC0002F2215222D
:1002100005160B283A223A223A22851E052807089D
:100220003F39C100851A4D29C013401E0528071902
:100230000516071D05123A2207190516071D051296
:100240003A223A2207190516071D05128316C030F7
:10025000810083127430B2001430B10081010B119F
:10026000851A462907190516071D05120B1D302989
:100270000B11B10B30291430B100B20B30299B3077
:10028000B3008E018F018C0110147C2AFB30B30067
:100290008E018F018C0110147C2A070841063F391A
:1002A000031912292222851A522940087039083A66
:1002B000C0002F22222285190516851D05120B2844
:1002C00040162F2207083F39C10029227830B2009A
:1002D00047220E227830B20047221C227830B2002A
:1002E000472215227830B200472229227830B20006
:1002F000472241088700052840122F2207083F396E
:10030000C10029227830B200472215227830B2008D
:1003100047221C227830B20047220E227830B200E9
:10032000472229227830B200472241088700052859
:100330000F30200603199D2905284008403AC000C7
:100340002F22401BD52907083F39C10029223C3004
:10035000B200472215223C30B200472229223C300D
:10036000B200472215223C30B200472229223C30FD
:10037000B200472215223C30B200472229223C30ED
:10038000B200472215223C30B200472229223C30DD
:10039000B200472215223C30B200472229223C30CD
:1003A000B200472241088700052807083F39C100ED
:1003B00029223C30B20047220E223C30B2004722B4
:1003C00029223C30B20047220E223C30B2004722A4
:1003D00029223C30B20047220E223C30B200472294
:1003E00029223C30B20047220E223C30B200472284
:1003F00029223C30B20047220E223C30B200472274
:1004000029223C30B2004722410887000528C01746
:10041000D52907190516071D0512080007080F3909
:10042000103A8719303A8700080007080F39203A38
:100430008719303A870008000301303A8719303AAB
:100440008700080003010718203A8718103A870030
:1004500008000301003A8719303A87000800400875
:1004600083169A001C1555309D00AA309D009C14DF
:10047000831208008316C030810083121430B1004B
:1004800081010B110B1D422AB10B412A08003A22AF
:10049000B20B472A080085018701073099003830E0
:1004A0008B00831670308F0091012F3085000F3044
:1004B00087000030950002309600C0308100831222
:1004C000103090000512C001031083169B011C140C
:1004D0001A0883127F39C00040181C22C0180E224F
:1004E00040191522C0192222401E882AA330B300C9
:1004F0008E018F018C01101407190516071D0512B6
:10050000C01922220C1C7C2A8C01B30B7C2A1010EF
:0E0510004018F528C0180029401908295A295A
:02051E000034A7
:020520000034A5
:02400E00D438A4
:024200001200AA
:00000001FF
